S00D00004C65635F342E7372656370
S11300000C942A000C9447000C9447000C9447006D
S11300100C9447000C9447000C9447000C94470040
S11300200C9447000C9447000C9447000C94470030
S11300300C9487020C94CA020C9447000C94F402AA
S11300400C9447000C9447000C9447000C94470010
S11300500C94470011241FBECFE5D8E0DEBFCDBF0E
S113006010E0A0E6B0E0E0E4F6E002C005900D92F6
S1130070A638B107D9F720E0A6E8B0E001C01D9288
S1130080A738B207E1F70E94D1000C941E030C9428
S11300900000CF93C82F60E083E00E94EF016C2F33
S11300A0661F6627661F8AE00E94EF01C6FB66276B
S11300B060F98BE00E94EF01C5FB662760F989E0D7
S11300C00E94EF01C4FB662760F988E00E94EF01FB
S11300D061E084E00E94EF018FEC97E00197F1F773
S11300E000C0000060E084E00E94EF018FEC97E024
S11300F00197F1F700C00000C3FB662760F98AE0AE
S11301000E94EF01C2FB662760F98BE00E94EF01B9
S1130110C1FB662760F989E00E94EF016C2F6170D2
S113012088E00E94EF0161E084E00E94EF018FEC1F
S113013097E00197F1F700C0000060E084E00E94BE
S1130140EF018FEC97E00197F1F700C00000CF9129
S113015008952FE788E391E0215080409040E1F733
S113016000C0000082E00E94490088E20E94490029
S11301708CE00E94490081E00E9449008FEC97E0E6
S11301800197F1F700C0000086E00E94490008953D
S11301900E94BD0280938600809186000E948202A4
S11301A0089588EC90E00E94C5020E94DF010E943D
S11301B0A90078940E94B10280E00E9472020E9419
S11301C0C102FFCF982F97708695869586956130EA
S11301D009F455C020F0623009F4A1C008958130BB
S11301E0C1F028F0823039F18330B9F108954AB36F
S11301F021E030E0B90102C0660F771F9A95E2F75B
S1130200CB01942F982B9ABB9BB3809589238BBBEE
S1130210089547B321E030E0B90102C0660F771FAB
S11302209A95E2F7CB01942F982B97BB98B38095BE
S1130230892388BB089544B321E030E0B90102C0AA
S1130240660F771F9A95E2F7CB01942F982B94BBF6
S113025095B38095892385BB089541B321E030E0AF
S1130260B90102C0660F771F9A95E2F7CB01942F6C
S1130270982B91BB92B38095892382BB08958130DA
S1130280C1F028F0823039F18330B9F108954AB3CE
S113029021E030E0B90102C0660F771F9A95E2F7BA
S11302A0CB018095942F98239ABB9BB389238BBB56
S11302B0089547B321E030E0B90102C0660F771F0B
S11302C09A95E2F7CB018095942F982397BB98B326
S11302D0892388BB089544B321E030E0B90102C00A
S11302E0660F771F9A95E2F7CB018095942F982398
S11302F094BB95B3892385BB089541B321E030E0D5
S1130300B90102C0660F771F9A95E2F7CB01809579
S1130310942F982391BB92B3892382BB0895813093
S1130320C1F028F0823039F18330B9F108954AB32D
S113033021E030E0B90102C0660F771F9A95E2F719
S1130340CB01962F909594239ABB9BB3892B8BBB9F
S1130350089547B321E030E0B90102C0660F771F6A
S11303609A95E2F7CB01962F9095942397BB98B377
S1130370892B88BB089544B321E030E0B90102C061
S1130380660F771F9A95E2F7CB01962F90959423E9
S113039094BB95B3892B85BB089541B321E030E02C
S11303A0B90102C0660F771F9A95E2F7CB01962F29
S11303B09095942391BB92B3892B82BB0895CF93DC
S11303C0C0E009C0EC2FF0E0EA59FF4F60818C2FA8
S11303D00E94E200CF5FC032A8F3CF910895982F16
S11303E097708695869586956130E1F5813099F010
S11303F028F08230E9F0833041F108954BB321E0D5
S113040030E0B90102C0660F771F9A95E2F7CB017D
S1130410842B8BBB089548B321E030E0B90102C0BE
S1130420660F771F9A95E2F7CB01842B88BB08955A
S113043045B321E030E0B90102C0660F771F9A95F9
S1130440E2F7CB01842B85BB089542B321E030E071
S1130450B90102C0660F771F9A95E2F7CB01842B8E
S113046082BB08958130A1F028F08230F9F0833006
S113047059F108954BB321E030E0B90102C0660F91
S1130480771F9A95E2F7CB01809584238BBB08955F
S113049048B321E030E0B90102C0660F771F9A9596
S11304A0E2F7CB018095842388BB089545B321E00E
S11304B030E0B90102C0660F771F9A95E2F7CB01CD
S11304C08095842385BB089542B321E030E0B901CF
S11304D002C0660F771F9A95E2F7CB0180958423BB
S11304E082BB0895811104C08DB180618DB903C0B0
S11304F08DB18F7E8DB98DB180648DB98DB18068D9
S11305008DB908958FB9779BFECF8FB108951F924F
S11305100F920FB60F9211242F933F934F935F9333
S11305206F937F938F939F93AF93BF93EF93FF93B7
S1130530E0916000F0916100E230F10509F0099565
S1130540FF91EF91BF91AF919F918F917F916F91A7
S11305505F914F913F912F910F900FBE0F901F907D
S1130560189583E389B98BB18D7F8BB98AB180618A
S11305708AB98AB188608AB908955F9BFECF8CB12D
S113058008958AB180688AB908959093650080932C
S1130590640008951F920F920FB60F9211242F93A7
S11305A03F934F935F936F937F938F939F93AF93F7
S11305B0BF93EF93FF93E0916400F0916500E23004
S11305C0F10509F00995FF91EF91BF91AF919F91CA
S11305D08F917F916F915F914F913F912F910F90E8
S11305E00FBE0F901F9018951F920F920FB60F9287
S11305F011242F933F934F935F936F937F938F9324
S11306009F93AF93BF93EF93FF93E0916200F091B8
S11306106300E230F10509F00995FF91EF91BF9174
S1130620AF919F918F917F916F915F914F913F9186
S11306302F910F900FBE0F901F901895F894FFCF35
S1130640020002000200010101000000000000009D
S11306500000000001000000000000000000010094
S109066002020202020284
S9030000FC
