S00D00004C65635F342E7372656370
S11300000C942A000C9447000C9447000C9447006D
S11300100C9447000C9447000C9447000C94470040
S11300200C9447000C9447000C9447000C94470030
S11300300C9433030C9447000C9447000C94470031
S11300400C9447000C9447000C9447000C94470010
S11300500C94470011241FBECFE5D8E0DEBFCDBF0E
S113006010E0A0E6B0E0EEEBF6E002C005900D92E1
S1130070A238B107D9F720E0A2E8B0E001C01D9290
S1130080A438B207E1F70E947C010C945D030C9440
S11300900000CF93C82F60E083E00E9496026C2F8B
S11300A0661F6627661F8AE00E949602C6FB6627C3
S11300B060F98BE00E949602C5FB662760F989E02F
S11300C00E949602C4FB662760F988E00E949602AB
S11300D061E084E00E9496028FEC97E00197F1F7CB
S11300E000C0000060E084E00E9496028FEC97E07C
S11300F00197F1F700C00000C3FB662760F98AE0AE
S11301000E949602C2FB662760F98BE00E94960269
S1130110C1FB662760F989E00E9496026C2F61702A
S113012088E00E94960261E084E00E9496028FECCF
S113013097E00197F1F700C0000060E084E00E94BE
S113014096028FEC97E00197F1F700C00000CF9181
S11301500895CF93C82F61E083E00E9496026C2F2C
S1130160661F6627661F8AE00E949602C6FB662702
S113017060F98BE00E949602C5FB662760F989E06E
S11301800E949602C4FB662760F988E00E949602EA
S113019061E084E00E9496028FEC97E00197F1F70A
S11301A000C0000060E084E00E9496028FEC97E0BB
S11301B00197F1F700C00000C3FB662760F98AE0ED
S11301C00E949602C2FB662760F98BE00E949602A9
S11301D0C1FB662760F989E00E9496026C2F61706A
S11301E088E00E94960261E084E00E9496028FEC0F
S11301F097E00197F1F700C0000060E084E00E94FE
S113020096028FEC97E00197F1F700C00000CF91C0
S113021008952FE788E391E0215080409040E1F772
S113022000C0000082E00E94490088E20E94490068
S11302308CE00E94490081E00E9449008FEC97E025
S11302400197F1F700C0000086E00E94490008957C
S1130250811105C080E8860F0E944900089581300D
S113026029F480EC860F0E9449000895823029F415
S113027084E9860F0E9449000895833021F484EDB7
S1130280860F0E94490008950E94A9000895CF9303
S1130290DF93D42F0E942801C0E004C080E20E94B2
S11302A04401CF5FCD17D0F3DF91CF91089583E759
S11302B00E9429038093830080918300883069F42D
S11302C060918200615042E080E00E944701809189
S11302D0820081508093820008956091820080E0C2
S11302E00E942801809183000E9444018091820031
S11302F08F5F80938200089587E591E00E942E032A
S11303000E9486020E940901789481E00E941903E8
S1130310FFCF982F9770869586958695613009F45E
S113032055C020F0623009F4A1C008958130C1F0B5
S113033028F0823039F18330B9F108954AB321E0CD
S113034030E0B90102C0660F771F9A95E2F7CB013E
S1130350942F982B9ABB9BB3809589238BBB0895CC
S113036047B321E030E0B90102C0660F771F9A95C8
S1130370E2F7CB01942F982B97BB98B380958923F0
S113038088BB089544B321E030E0B90102C0660F90
S1130390771F9A95E2F7CB01942F982B94BB95B3D2
S11303A08095892385BB089541B321E030E0B901EC
S11303B002C0660F771F9A95E2F7CB01942F982B12
S11303C091BB92B38095892382BB08958130C1F09B
S11303D028F0823039F18330B9F108954AB321E02D
S11303E030E0B90102C0660F771F9A95E2F7CB019E
S11303F08095942F98239ABB9BB389238BBB089534
S113040047B321E030E0B90102C0660F771F9A9527
S1130410E2F7CB018095942F982397BB98B3892357
S113042088BB089544B321E030E0B90102C0660FEF
S1130430771F9A95E2F7CB018095942F982394BB6C
S113044095B3892385BB089541B321E030E0B90118
S113045002C0660F771F9A95E2F7CB018095942F1F
S1130460982391BB92B3892382BB08958130C1F054
S113047028F0823039F18330B9F108954AB321E08C
S113048030E0B90102C0660F771F9A95E2F7CB01FD
S1130490962F909594239ABB9BB3892B8BBB08957D
S11304A047B321E030E0B90102C0660F771F9A9587
S11304B0E2F7CB01962F9095942397BB98B3892BA1
S11304C088BB089544B321E030E0B90102C0660F4F
S11304D0771F9A95E2F7CB01962F9095942394BBBE
S11304E095B3892B85BB089541B321E030E0B90170
S11304F002C0660F771F9A95E2F7CB01962F90956D
S1130500942391BB92B3892B82BB0895CF93C0E00F
S113051009C0EC2FF0E0EE59FF4F60818C2F0E9450
S11305208901CF5FC032A8F3CF910895982F9770B7
S11305308695869586956130E1F5813099F028F0AD
S11305408230E9F0833041F108954BB321E030E08B
S1130550B90102C0660F771F9A95E2F7CB01842B8D
S11305608BBB089548B321E030E0B90102C0660FA7
S1130570771F9A95E2F7CB01842B88BB089545B386
S113058021E030E0B90102C0660F771F9A95E2F7C7
S1130590CB01842B85BB089542B321E030E0B9013F
S11305A002C0660F771F9A95E2F7CB01842B82BBBA
S11305B008958130A1F028F08230F9F0833059F1A8
S11305C008954BB321E030E0B90102C0660F771FF4
S11305D09A95E2F7CB01809584238BBB089548B3A9
S11305E021E030E0B90102C0660F771F9A95E2F767
S11305F0CB018095842388BB089545B321E030E086
S1130600B90102C0660F771F9A95E2F7CB01809576
S1130610842385BB089542B321E030E0B90102C0D0
S1130620660F771F9A95E2F7CB018095842382BBEE
S11306300895811104C08DB180618DB903C08DB15D
S11306408F7E8DB98DB180648DB98DB180688DB97F
S113065008958FB9779BFECF8FB108959093610071
S11306608093600008951F920F920FB60F92112489
S11306702F933F934F935F936F937F938F939F93A6
S1130680AF93BF93EF93FF93E0916000F09161000B
S1130690E230F10509F00995FF91EF91BF91AF9117
S11306A09F918F917F916F915F914F913F912F9186
S11106B00F900FBE0F901F901895F894FFCF77
S11306BE0200010101000000000000000000010121
S11306CE000100000000000000000100020202020E
S10506DE020212
S9030000FC
